{
  "_format": "hh-sol-artifact-1",
  "contractName": "ERC721NFT",
  "sourceName": "contracts/ERC721NFT.sol",
  "abi": [
    {
      "inputs": [
        {
          "internalType": "string",
          "name": "_name",
          "type": "string"
        },
        {
          "internalType": "string",
          "name": "_symbol",
          "type": "string"
        }
      ],
      "stateMutability": "nonpayable",
      "type": "constructor"
    },
    {
      "anonymous": false,
      "inputs": [
        {
          "indexed": true,
          "internalType": "address",
          "name": "owner",
          "type": "address"
        },
        {
          "indexed": true,
          "internalType": "address",
          "name": "approved",
          "type": "address"
        },
        {
          "indexed": true,
          "internalType": "uint256",
          "name": "tokenId",
          "type": "uint256"
        }
      ],
      "name": "Approval",
      "type": "event"
    },
    {
      "anonymous": false,
      "inputs": [
        {
          "indexed": true,
          "internalType": "address",
          "name": "owner",
          "type": "address"
        },
        {
          "indexed": true,
          "internalType": "address",
          "name": "operator",
          "type": "address"
        },
        {
          "indexed": false,
          "internalType": "bool",
          "name": "approved",
          "type": "bool"
        }
      ],
      "name": "ApprovalForAll",
      "type": "event"
    },
    {
      "anonymous": false,
      "inputs": [
        {
          "indexed": true,
          "internalType": "address",
          "name": "previousOwner",
          "type": "address"
        },
        {
          "indexed": true,
          "internalType": "address",
          "name": "newOwner",
          "type": "address"
        }
      ],
      "name": "OwnershipTransferred",
      "type": "event"
    },
    {
      "anonymous": false,
      "inputs": [
        {
          "indexed": true,
          "internalType": "address",
          "name": "from",
          "type": "address"
        },
        {
          "indexed": true,
          "internalType": "address",
          "name": "to",
          "type": "address"
        },
        {
          "indexed": true,
          "internalType": "uint256",
          "name": "tokenId",
          "type": "uint256"
        }
      ],
      "name": "Transfer",
      "type": "event"
    },
    {
      "inputs": [
        {
          "internalType": "address",
          "name": "to",
          "type": "address"
        },
        {
          "internalType": "uint256",
          "name": "tokenId",
          "type": "uint256"
        }
      ],
      "name": "approve",
      "outputs": [],
      "stateMutability": "nonpayable",
      "type": "function"
    },
    {
      "inputs": [
        {
          "internalType": "address",
          "name": "owner",
          "type": "address"
        }
      ],
      "name": "balanceOf",
      "outputs": [
        {
          "internalType": "uint256",
          "name": "",
          "type": "uint256"
        }
      ],
      "stateMutability": "view",
      "type": "function"
    },
    {
      "inputs": [
        {
          "internalType": "uint256",
          "name": "tokenId",
          "type": "uint256"
        }
      ],
      "name": "getApproved",
      "outputs": [
        {
          "internalType": "address",
          "name": "",
          "type": "address"
        }
      ],
      "stateMutability": "view",
      "type": "function"
    },
    {
      "inputs": [
        {
          "internalType": "address",
          "name": "owner",
          "type": "address"
        },
        {
          "internalType": "address",
          "name": "operator",
          "type": "address"
        }
      ],
      "name": "isApprovedForAll",
      "outputs": [
        {
          "internalType": "bool",
          "name": "",
          "type": "bool"
        }
      ],
      "stateMutability": "view",
      "type": "function"
    },
    {
      "inputs": [
        {
          "internalType": "string",
          "name": "Uri",
          "type": "string"
        }
      ],
      "name": "mint",
      "outputs": [
        {
          "internalType": "uint256",
          "name": "",
          "type": "uint256"
        }
      ],
      "stateMutability": "nonpayable",
      "type": "function"
    },
    {
      "inputs": [],
      "name": "name",
      "outputs": [
        {
          "internalType": "string",
          "name": "",
          "type": "string"
        }
      ],
      "stateMutability": "view",
      "type": "function"
    },
    {
      "inputs": [],
      "name": "owner",
      "outputs": [
        {
          "internalType": "address",
          "name": "",
          "type": "address"
        }
      ],
      "stateMutability": "view",
      "type": "function"
    },
    {
      "inputs": [
        {
          "internalType": "uint256",
          "name": "tokenId",
          "type": "uint256"
        }
      ],
      "name": "ownerOf",
      "outputs": [
        {
          "internalType": "address",
          "name": "",
          "type": "address"
        }
      ],
      "stateMutability": "view",
      "type": "function"
    },
    {
      "inputs": [],
      "name": "renounceOwnership",
      "outputs": [],
      "stateMutability": "nonpayable",
      "type": "function"
    },
    {
      "inputs": [
        {
          "internalType": "address",
          "name": "from",
          "type": "address"
        },
        {
          "internalType": "address",
          "name": "to",
          "type": "address"
        },
        {
          "internalType": "uint256",
          "name": "tokenId",
          "type": "uint256"
        }
      ],
      "name": "safeTransferFrom",
      "outputs": [],
      "stateMutability": "nonpayable",
      "type": "function"
    },
    {
      "inputs": [
        {
          "internalType": "address",
          "name": "from",
          "type": "address"
        },
        {
          "internalType": "address",
          "name": "to",
          "type": "address"
        },
        {
          "internalType": "uint256",
          "name": "tokenId",
          "type": "uint256"
        },
        {
          "internalType": "bytes",
          "name": "data",
          "type": "bytes"
        }
      ],
      "name": "safeTransferFrom",
      "outputs": [],
      "stateMutability": "nonpayable",
      "type": "function"
    },
    {
      "inputs": [
        {
          "internalType": "address",
          "name": "operator",
          "type": "address"
        },
        {
          "internalType": "bool",
          "name": "approved",
          "type": "bool"
        }
      ],
      "name": "setApprovalForAll",
      "outputs": [],
      "stateMutability": "nonpayable",
      "type": "function"
    },
    {
      "inputs": [
        {
          "internalType": "bytes4",
          "name": "interfaceId",
          "type": "bytes4"
        }
      ],
      "name": "supportsInterface",
      "outputs": [
        {
          "internalType": "bool",
          "name": "",
          "type": "bool"
        }
      ],
      "stateMutability": "view",
      "type": "function"
    },
    {
      "inputs": [],
      "name": "symbol",
      "outputs": [
        {
          "internalType": "string",
          "name": "",
          "type": "string"
        }
      ],
      "stateMutability": "view",
      "type": "function"
    },
    {
      "inputs": [
        {
          "internalType": "uint256",
          "name": "tokenId",
          "type": "uint256"
        }
      ],
      "name": "tokenURI",
      "outputs": [
        {
          "internalType": "string",
          "name": "",
          "type": "string"
        }
      ],
      "stateMutability": "view",
      "type": "function"
    },
    {
      "inputs": [
        {
          "internalType": "address",
          "name": "from",
          "type": "address"
        },
        {
          "internalType": "address",
          "name": "to",
          "type": "address"
        },
        {
          "internalType": "uint256",
          "name": "tokenId",
          "type": "uint256"
        }
      ],
      "name": "transferFrom",
      "outputs": [],
      "stateMutability": "nonpayable",
      "type": "function"
    },
    {
      "inputs": [
        {
          "internalType": "address",
          "name": "newOwner",
          "type": "address"
        }
      ],
      "name": "transferOwnership",
      "outputs": [],
      "stateMutability": "nonpayable",
      "type": "function"
    }
  ],
  "bytecode": "0x60806040523480156200001157600080fd5b506040516200312f3803806200312f8339818101604052810190620000379190620003b0565b818181600090805190602001906200005192919062000163565b5080600190805190602001906200006a92919062000163565b5050506200008d620000816200009560201b60201c565b6200009d60201b60201c565b50506200049a565b600033905090565b6000600760009054906101000a900473ffffffffffffffffffffffffffffffffffffffff16905081600760006101000a81548173ffffffffffffffffffffffffffffffffffffffff021916908373ffffffffffffffffffffffffffffffffffffffff1602179055508173ffffffffffffffffffffffffffffffffffffffff168173ffffffffffffffffffffffffffffffffffffffff167f8be0079c531659141344cd1fd0a4f28419497f9722a3daafe3b4186f6b6457e060405160405180910390a35050565b828054620001719062000464565b90600052602060002090601f016020900481019282620001955760008555620001e1565b82601f10620001b057805160ff1916838001178555620001e1565b82800160010185558215620001e1579182015b82811115620001e0578251825591602001919060010190620001c3565b5b509050620001f09190620001f4565b5090565b5b808211156200020f576000816000905550600101620001f5565b5090565b6000604051905090565b600080fd5b600080fd5b600080fd5b600080fd5b6000601f19601f8301169050919050565b7f4e487b7100000000000000000000000000000000000000000000000000000000600052604160045260246000fd5b6200027c8262000231565b810181811067ffffffffffffffff821117156200029e576200029d62000242565b5b80604052505050565b6000620002b362000213565b9050620002c1828262000271565b919050565b600067ffffffffffffffff821115620002e457620002e362000242565b5b620002ef8262000231565b9050602081019050919050565b60005b838110156200031c578082015181840152602081019050620002ff565b838111156200032c576000848401525b50505050565b6000620003496200034384620002c6565b620002a7565b9050828152602081018484840111156200036857620003676200022c565b5b62000375848285620002fc565b509392505050565b600082601f83011262000395576200039462000227565b5b8151620003a784826020860162000332565b91505092915050565b60008060408385031215620003ca57620003c96200021d565b5b600083015167ffffffffffffffff811115620003eb57620003ea62000222565b5b620003f9858286016200037d565b925050602083015167ffffffffffffffff8111156200041d576200041c62000222565b5b6200042b858286016200037d565b9150509250929050565b7f4e487b7100000000000000000000000000000000000000000000000000000000600052602260045260246000fd5b600060028204905060018216806200047d57607f821691505b6020821081141562000494576200049362000435565b5b50919050565b612c8580620004aa6000396000f3fe608060405234801561001057600080fd5b506004361061010b5760003560e01c8063715018a6116100a2578063b88d4fde11610071578063b88d4fde146102a4578063c87b56dd146102c0578063d85d3d27146102f0578063e985e9c514610320578063f2fde38b146103505761010b565b8063715018a6146102425780638da5cb5b1461024c57806395d89b411461026a578063a22cb465146102885761010b565b806323b872dd116100de57806323b872dd146101aa57806342842e0e146101c65780636352211e146101e257806370a08231146102125761010b565b806301ffc9a71461011057806306fdde0314610140578063081812fc1461015e578063095ea7b31461018e575b600080fd5b61012a60048036038101906101259190611b6a565b61036c565b6040516101379190611bb2565b60405180910390f35b61014861044e565b6040516101559190611c66565b60405180910390f35b61017860048036038101906101739190611cbe565b6104e0565b6040516101859190611d2c565b60405180910390f35b6101a860048036038101906101a39190611d73565b610526565b005b6101c460048036038101906101bf9190611db3565b61063e565b005b6101e060048036038101906101db9190611db3565b61069e565b005b6101fc60048036038101906101f79190611cbe565b6106be565b6040516102099190611d2c565b60405180910390f35b61022c60048036038101906102279190611e06565b610770565b6040516102399190611e42565b60405180910390f35b61024a610828565b005b61025461083c565b6040516102619190611d2c565b60405180910390f35b610272610866565b60405161027f9190611c66565b60405180910390f35b6102a2600480360381019061029d9190611e89565b6108f8565b005b6102be60048036038101906102b99190611ffe565b61090e565b005b6102da60048036038101906102d59190611cbe565b610970565b6040516102e79190611c66565b60405180910390f35b61030a60048036038101906103059190612122565b610a83565b6040516103179190611e42565b60405180910390f35b61033a6004803603810190610335919061216b565b610ac9565b6040516103479190611bb2565b60405180910390f35b61036a60048036038101906103659190611e06565b610b5d565b005b60007f80ac58cd000000000000000000000000000000000000000000000000000000007bffffffffffffffffffffffffffffffffffffffffffffffffffffffff1916827bffffffffffffffffffffffffffffffffffffffffffffffffffffffff1916148061043757507f5b5e139f000000000000000000000000000000000000000000000000000000007bffffffffffffffffffffffffffffffffffffffffffffffffffffffff1916827bffffffffffffffffffffffffffffffffffffffffffffffffffffffff1916145b80610447575061044682610be1565b5b9050919050565b60606000805461045d906121da565b80601f0160208091040260200160405190810160405280929190818152602001828054610489906121da565b80156104d65780601f106104ab576101008083540402835291602001916104d6565b820191906000526020600020905b8154815290600101906020018083116104b957829003601f168201915b5050505050905090565b60006104eb82610c4b565b6004600083815260200190815260200160002060009054906101000a900473ffffffffffffffffffffffffffffffffffffffff169050919050565b6000610531826106be565b90508073ffffffffffffffffffffffffffffffffffffffff168373ffffffffffffffffffffffffffffffffffffffff1614156105a2576040517f08c379a00000000000000000000000000000000000000000000000000000000081526004016105999061227e565b60405180910390fd5b8073ffffffffffffffffffffffffffffffffffffffff166105c1610c96565b73ffffffffffffffffffffffffffffffffffffffff1614806105f057506105ef816105ea610c96565b610ac9565b5b61062f576040517f08c379a000000000000000000000000000000000000000000000000000000000815260040161062690612310565b60405180910390fd5b6106398383610c9e565b505050565b61064f610649610c96565b82610d57565b61068e576040517f08c379a0000000000000000000000000000000000000000000000000000000008152600401610685906123a2565b60405180910390fd5b610699838383610dec565b505050565b6106b98383836040518060200160405280600081525061090e565b505050565b6000806002600084815260200190815260200160002060009054906101000a900473ffffffffffffffffffffffffffffffffffffffff169050600073ffffffffffffffffffffffffffffffffffffffff168173ffffffffffffffffffffffffffffffffffffffff161415610767576040517f08c379a000000000000000000000000000000000000000000000000000000000815260040161075e9061240e565b60405180910390fd5b80915050919050565b60008073ffffffffffffffffffffffffffffffffffffffff168273ffffffffffffffffffffffffffffffffffffffff1614156107e1576040517f08c379a00000000000000000000000000000000000000000000000000000000081526004016107d8906124a0565b60405180910390fd5b600360008373ffffffffffffffffffffffffffffffffffffffff1673ffffffffffffffffffffffffffffffffffffffff168152602001908152602001600020549050919050565b610830611053565b61083a60006110d1565b565b6000600760009054906101000a900473ffffffffffffffffffffffffffffffffffffffff16905090565b606060018054610875906121da565b80601f01602080910402602001604051908101604052809291908181526020018280546108a1906121da565b80156108ee5780601f106108c3576101008083540402835291602001916108ee565b820191906000526020600020905b8154815290600101906020018083116108d157829003601f168201915b5050505050905090565b61090a610903610c96565b8383611197565b5050565b61091f610919610c96565b83610d57565b61095e576040517f08c379a0000000000000000000000000000000000000000000000000000000008152600401610955906123a2565b60405180910390fd5b61096a84848484611304565b50505050565b606061097b82610c4b565b600060066000848152602001908152602001600020805461099b906121da565b80601f01602080910402602001604051908101604052809291908181526020018280546109c7906121da565b8015610a145780601f106109e957610100808354040283529160200191610a14565b820191906000526020600020905b8154815290600101906020018083116109f757829003601f168201915b505050505090506000610a25611360565b9050600081511415610a3b578192505050610a7e565b600082511115610a70578082604051602001610a589291906124fc565b60405160208183030381529060405292505050610a7e565b610a7984611377565b925050505b919050565b6000610a8d611053565b6000610a9960086113df565b9050610aa560086113ed565b610ab6610ab0610c96565b82611403565b610ac08184611421565b80915050919050565b6000600560008473ffffffffffffffffffffffffffffffffffffffff1673ffffffffffffffffffffffffffffffffffffffff16815260200190815260200160002060008373ffffffffffffffffffffffffffffffffffffffff1673ffffffffffffffffffffffffffffffffffffffff16815260200190815260200160002060009054906101000a900460ff16905092915050565b610b65611053565b600073ffffffffffffffffffffffffffffffffffffffff168173ffffffffffffffffffffffffffffffffffffffff161415610bd5576040517f08c379a0000000000000000000000000000000000000000000000000000000008152600401610bcc90612592565b60405180910390fd5b610bde816110d1565b50565b60007f01ffc9a7000000000000000000000000000000000000000000000000000000007bffffffffffffffffffffffffffffffffffffffffffffffffffffffff1916827bffffffffffffffffffffffffffffffffffffffffffffffffffffffff1916149050919050565b610c5481611495565b610c93576040517f08c379a0000000000000000000000000000000000000000000000000000000008152600401610c8a9061240e565b60405180910390fd5b50565b600033905090565b816004600083815260200190815260200160002060006101000a81548173ffffffffffffffffffffffffffffffffffffffff021916908373ffffffffffffffffffffffffffffffffffffffff160217905550808273ffffffffffffffffffffffffffffffffffffffff16610d11836106be565b73ffffffffffffffffffffffffffffffffffffffff167f8c5be1e5ebec7d5bd14f71427d1e84f3dd0314c0f7b2291e5b200ac8c7c3b92560405160405180910390a45050565b600080610d63836106be565b90508073ffffffffffffffffffffffffffffffffffffffff168473ffffffffffffffffffffffffffffffffffffffff161480610da55750610da48185610ac9565b5b80610de357508373ffffffffffffffffffffffffffffffffffffffff16610dcb846104e0565b73ffffffffffffffffffffffffffffffffffffffff16145b91505092915050565b8273ffffffffffffffffffffffffffffffffffffffff16610e0c826106be565b73ffffffffffffffffffffffffffffffffffffffff1614610e62576040517f08c379a0000000000000000000000000000000000000000000000000000000008152600401610e5990612624565b60405180910390fd5b600073ffffffffffffffffffffffffffffffffffffffff168273ffffffffffffffffffffffffffffffffffffffff161415610ed2576040517f08c379a0000000000000000000000000000000000000000000000000000000008152600401610ec9906126b6565b60405180910390fd5b610edd838383611501565b610ee8600082610c9e565b6001600360008573ffffffffffffffffffffffffffffffffffffffff1673ffffffffffffffffffffffffffffffffffffffff1681526020019081526020016000206000828254610f389190612705565b925050819055506001600360008473ffffffffffffffffffffffffffffffffffffffff1673ffffffffffffffffffffffffffffffffffffffff1681526020019081526020016000206000828254610f8f9190612739565b92505081905550816002600083815260200190815260200160002060006101000a81548173ffffffffffffffffffffffffffffffffffffffff021916908373ffffffffffffffffffffffffffffffffffffffff160217905550808273ffffffffffffffffffffffffffffffffffffffff168473ffffffffffffffffffffffffffffffffffffffff167fddf252ad1be2c89b69c2b068fc378daa952ba7f163c4a11628f55a4df523b3ef60405160405180910390a461104e838383611506565b505050565b61105b610c96565b73ffffffffffffffffffffffffffffffffffffffff1661107961083c565b73ffffffffffffffffffffffffffffffffffffffff16146110cf576040517f08c379a00000000000000000000000000000000000000000000000000000000081526004016110c6906127db565b60405180910390fd5b565b6000600760009054906101000a900473ffffffffffffffffffffffffffffffffffffffff16905081600760006101000a81548173ffffffffffffffffffffffffffffffffffffffff021916908373ffffffffffffffffffffffffffffffffffffffff1602179055508173ffffffffffffffffffffffffffffffffffffffff168173ffffffffffffffffffffffffffffffffffffffff167f8be0079c531659141344cd1fd0a4f28419497f9722a3daafe3b4186f6b6457e060405160405180910390a35050565b8173ffffffffffffffffffffffffffffffffffffffff168373ffffffffffffffffffffffffffffffffffffffff161415611206576040517f08c379a00000000000000000000000000000000000000000000000000000000081526004016111fd90612847565b60405180910390fd5b80600560008573ffffffffffffffffffffffffffffffffffffffff1673ffffffffffffffffffffffffffffffffffffffff16815260200190815260200160002060008473ffffffffffffffffffffffffffffffffffffffff1673ffffffffffffffffffffffffffffffffffffffff16815260200190815260200160002060006101000a81548160ff0219169083151502179055508173ffffffffffffffffffffffffffffffffffffffff168373ffffffffffffffffffffffffffffffffffffffff167f17307eab39ab6107e8899845ad3d59bd9653f200f220920489ca2b5937696c31836040516112f79190611bb2565b60405180910390a3505050565b61130f848484610dec565b61131b8484848461150b565b61135a576040517f08c379a0000000000000000000000000000000000000000000000000000000008152600401611351906128d9565b60405180910390fd5b50505050565b606060405180602001604052806000815250905090565b606061138282610c4b565b600061138c611360565b905060008151116113ac57604051806020016040528060008152506113d7565b806113b6846116a2565b6040516020016113c79291906124fc565b6040516020818303038152906040525b915050919050565b600081600001549050919050565b6001816000016000828254019250508190555050565b61141d828260405180602001604052806000815250611803565b5050565b61142a82611495565b611469576040517f08c379a00000000000000000000000000000000000000000000000000000000081526004016114609061296b565b60405180910390fd5b80600660008481526020019081526020016000209080519060200190611490929190611a5b565b505050565b60008073ffffffffffffffffffffffffffffffffffffffff166002600084815260200190815260200160002060009054906101000a900473ffffffffffffffffffffffffffffffffffffffff1673ffffffffffffffffffffffffffffffffffffffff1614159050919050565b505050565b505050565b600061152c8473ffffffffffffffffffffffffffffffffffffffff1661185e565b15611695578373ffffffffffffffffffffffffffffffffffffffff1663150b7a02611555610c96565b8786866040518563ffffffff1660e01b815260040161157794939291906129e0565b602060405180830381600087803b15801561159157600080fd5b505af19250505080156115c257506040513d601f19601f820116820180604052508101906115bf9190612a41565b60015b611645573d80600081146115f2576040519150601f19603f3d011682016040523d82523d6000602084013e6115f7565b606091505b5060008151141561163d576040517f08c379a0000000000000000000000000000000000000000000000000000000008152600401611634906128d9565b60405180910390fd5b805181602001fd5b63150b7a0260e01b7bffffffffffffffffffffffffffffffffffffffffffffffffffffffff1916817bffffffffffffffffffffffffffffffffffffffffffffffffffffffff19161491505061169a565b600190505b949350505050565b606060008214156116ea576040518060400160405280600181526020017f300000000000000000000000000000000000000000000000000000000000000081525090506117fe565b600082905060005b6000821461171c57808061170590612a6e565b915050600a826117159190612ae6565b91506116f2565b60008167ffffffffffffffff81111561173857611737611ed3565b5b6040519080825280601f01601f19166020018201604052801561176a5781602001600182028036833780820191505090505b5090505b600085146117f7576001826117839190612705565b9150600a856117929190612b17565b603061179e9190612739565b60f81b8183815181106117b4576117b3612b48565b5b60200101907effffffffffffffffffffffffffffffffffffffffffffffffffffffffffffff1916908160001a905350600a856117f09190612ae6565b945061176e565b8093505050505b919050565b61180d8383611881565b61181a600084848461150b565b611859576040517f08c379a0000000000000000000000000000000000000000000000000000000008152600401611850906128d9565b60405180910390fd5b505050565b6000808273ffffffffffffffffffffffffffffffffffffffff163b119050919050565b600073ffffffffffffffffffffffffffffffffffffffff168273ffffffffffffffffffffffffffffffffffffffff1614156118f1576040517f08c379a00000000000000000000000000000000000000000000000000000000081526004016118e890612bc3565b60405180910390fd5b6118fa81611495565b1561193a576040517f08c379a000000000000000000000000000000000000000000000000000000000815260040161193190612c2f565b60405180910390fd5b61194660008383611501565b6001600360008473ffffffffffffffffffffffffffffffffffffffff1673ffffffffffffffffffffffffffffffffffffffff16815260200190815260200160002060008282546119969190612739565b92505081905550816002600083815260200190815260200160002060006101000a81548173ffffffffffffffffffffffffffffffffffffffff021916908373ffffffffffffffffffffffffffffffffffffffff160217905550808273ffffffffffffffffffffffffffffffffffffffff16600073ffffffffffffffffffffffffffffffffffffffff167fddf252ad1be2c89b69c2b068fc378daa952ba7f163c4a11628f55a4df523b3ef60405160405180910390a4611a5760008383611506565b5050565b828054611a67906121da565b90600052602060002090601f016020900481019282611a895760008555611ad0565b82601f10611aa257805160ff1916838001178555611ad0565b82800160010185558215611ad0579182015b82811115611acf578251825591602001919060010190611ab4565b5b509050611add9190611ae1565b5090565b5b80821115611afa576000816000905550600101611ae2565b5090565b6000604051905090565b600080fd5b600080fd5b60007fffffffff0000000000000000000000000000000000000000000000000000000082169050919050565b611b4781611b12565b8114611b5257600080fd5b50565b600081359050611b6481611b3e565b92915050565b600060208284031215611b8057611b7f611b08565b5b6000611b8e84828501611b55565b91505092915050565b60008115159050919050565b611bac81611b97565b82525050565b6000602082019050611bc76000830184611ba3565b92915050565b600081519050919050565b600082825260208201905092915050565b60005b83811015611c07578082015181840152602081019050611bec565b83811115611c16576000848401525b50505050565b6000601f19601f8301169050919050565b6000611c3882611bcd565b611c428185611bd8565b9350611c52818560208601611be9565b611c5b81611c1c565b840191505092915050565b60006020820190508181036000830152611c808184611c2d565b905092915050565b6000819050919050565b611c9b81611c88565b8114611ca657600080fd5b50565b600081359050611cb881611c92565b92915050565b600060208284031215611cd457611cd3611b08565b5b6000611ce284828501611ca9565b91505092915050565b600073ffffffffffffffffffffffffffffffffffffffff82169050919050565b6000611d1682611ceb565b9050919050565b611d2681611d0b565b82525050565b6000602082019050611d416000830184611d1d565b92915050565b611d5081611d0b565b8114611d5b57600080fd5b50565b600081359050611d6d81611d47565b92915050565b60008060408385031215611d8a57611d89611b08565b5b6000611d9885828601611d5e565b9250506020611da985828601611ca9565b9150509250929050565b600080600060608486031215611dcc57611dcb611b08565b5b6000611dda86828701611d5e565b9350506020611deb86828701611d5e565b9250506040611dfc86828701611ca9565b9150509250925092565b600060208284031215611e1c57611e1b611b08565b5b6000611e2a84828501611d5e565b91505092915050565b611e3c81611c88565b82525050565b6000602082019050611e576000830184611e33565b92915050565b611e6681611b97565b8114611e7157600080fd5b50565b600081359050611e8381611e5d565b92915050565b60008060408385031215611ea057611e9f611b08565b5b6000611eae85828601611d5e565b9250506020611ebf85828601611e74565b9150509250929050565b600080fd5b600080fd5b7f4e487b7100000000000000000000000000000000000000000000000000000000600052604160045260246000fd5b611f0b82611c1c565b810181811067ffffffffffffffff82111715611f2a57611f29611ed3565b5b80604052505050565b6000611f3d611afe565b9050611f498282611f02565b919050565b600067ffffffffffffffff821115611f6957611f68611ed3565b5b611f7282611c1c565b9050602081019050919050565b82818337600083830152505050565b6000611fa1611f9c84611f4e565b611f33565b905082815260208101848484011115611fbd57611fbc611ece565b5b611fc8848285611f7f565b509392505050565b600082601f830112611fe557611fe4611ec9565b5b8135611ff5848260208601611f8e565b91505092915050565b6000806000806080858703121561201857612017611b08565b5b600061202687828801611d5e565b945050602061203787828801611d5e565b935050604061204887828801611ca9565b925050606085013567ffffffffffffffff81111561206957612068611b0d565b5b61207587828801611fd0565b91505092959194509250565b600067ffffffffffffffff82111561209c5761209b611ed3565b5b6120a582611c1c565b9050602081019050919050565b60006120c56120c084612081565b611f33565b9050828152602081018484840111156120e1576120e0611ece565b5b6120ec848285611f7f565b509392505050565b600082601f83011261210957612108611ec9565b5b81356121198482602086016120b2565b91505092915050565b60006020828403121561213857612137611b08565b5b600082013567ffffffffffffffff81111561215657612155611b0d565b5b612162848285016120f4565b91505092915050565b6000806040838503121561218257612181611b08565b5b600061219085828601611d5e565b92505060206121a185828601611d5e565b9150509250929050565b7f4e487b7100000000000000000000000000000000000000000000000000000000600052602260045260246000fd5b600060028204905060018216806121f257607f821691505b60208210811415612206576122056121ab565b5b50919050565b7f4552433732313a20617070726f76616c20746f2063757272656e74206f776e6560008201527f7200000000000000000000000000000000000000000000000000000000000000602082015250565b6000612268602183611bd8565b91506122738261220c565b604082019050919050565b600060208201905081810360008301526122978161225b565b9050919050565b7f4552433732313a20617070726f76652063616c6c6572206973206e6f7420746f60008201527f6b656e206f776e6572206e6f7220617070726f76656420666f7220616c6c0000602082015250565b60006122fa603e83611bd8565b91506123058261229e565b604082019050919050565b60006020820190508181036000830152612329816122ed565b9050919050565b7f4552433732313a2063616c6c6572206973206e6f7420746f6b656e206f776e6560008201527f72206e6f7220617070726f766564000000000000000000000000000000000000602082015250565b600061238c602e83611bd8565b915061239782612330565b604082019050919050565b600060208201905081810360008301526123bb8161237f565b9050919050565b7f4552433732313a20696e76616c696420746f6b656e2049440000000000000000600082015250565b60006123f8601883611bd8565b9150612403826123c2565b602082019050919050565b60006020820190508181036000830152612427816123eb565b9050919050565b7f4552433732313a2061646472657373207a65726f206973206e6f74206120766160008201527f6c6964206f776e65720000000000000000000000000000000000000000000000602082015250565b600061248a602983611bd8565b91506124958261242e565b604082019050919050565b600060208201905081810360008301526124b98161247d565b9050919050565b600081905092915050565b60006124d682611bcd565b6124e081856124c0565b93506124f0818560208601611be9565b80840191505092915050565b600061250882856124cb565b915061251482846124cb565b91508190509392505050565b7f4f776e61626c653a206e6577206f776e657220697320746865207a65726f206160008201527f6464726573730000000000000000000000000000000000000000000000000000602082015250565b600061257c602683611bd8565b915061258782612520565b604082019050919050565b600060208201905081810360008301526125ab8161256f565b9050919050565b7f4552433732313a207472616e736665722066726f6d20696e636f72726563742060008201527f6f776e6572000000000000000000000000000000000000000000000000000000602082015250565b600061260e602583611bd8565b9150612619826125b2565b604082019050919050565b6000602082019050818103600083015261263d81612601565b9050919050565b7f4552433732313a207472616e7366657220746f20746865207a65726f2061646460008201527f7265737300000000000000000000000000000000000000000000000000000000602082015250565b60006126a0602483611bd8565b91506126ab82612644565b604082019050919050565b600060208201905081810360008301526126cf81612693565b9050919050565b7f4e487b7100000000000000000000000000000000000000000000000000000000600052601160045260246000fd5b600061271082611c88565b915061271b83611c88565b92508282101561272e5761272d6126d6565b5b828203905092915050565b600061274482611c88565b915061274f83611c88565b9250827fffffffffffffffffffffffffffffffffffffffffffffffffffffffffffffffff03821115612784576127836126d6565b5b828201905092915050565b7f4f776e61626c653a2063616c6c6572206973206e6f7420746865206f776e6572600082015250565b60006127c5602083611bd8565b91506127d08261278f565b602082019050919050565b600060208201905081810360008301526127f4816127b8565b9050919050565b7f4552433732313a20617070726f766520746f2063616c6c657200000000000000600082015250565b6000612831601983611bd8565b915061283c826127fb565b602082019050919050565b6000602082019050818103600083015261286081612824565b9050919050565b7f4552433732313a207472616e7366657220746f206e6f6e20455243373231526560008201527f63656976657220696d706c656d656e7465720000000000000000000000000000602082015250565b60006128c3603283611bd8565b91506128ce82612867565b604082019050919050565b600060208201905081810360008301526128f2816128b6565b9050919050565b7f45524337323155524953746f726167653a2055524920736574206f66206e6f6e60008201527f6578697374656e7420746f6b656e000000000000000000000000000000000000602082015250565b6000612955602e83611bd8565b9150612960826128f9565b604082019050919050565b6000602082019050818103600083015261298481612948565b9050919050565b600081519050919050565b600082825260208201905092915050565b60006129b28261298b565b6129bc8185612996565b93506129cc818560208601611be9565b6129d581611c1c565b840191505092915050565b60006080820190506129f56000830187611d1d565b612a026020830186611d1d565b612a0f6040830185611e33565b8181036060830152612a2181846129a7565b905095945050505050565b600081519050612a3b81611b3e565b92915050565b600060208284031215612a5757612a56611b08565b5b6000612a6584828501612a2c565b91505092915050565b6000612a7982611c88565b91507fffffffffffffffffffffffffffffffffffffffffffffffffffffffffffffffff821415612aac57612aab6126d6565b5b600182019050919050565b7f4e487b7100000000000000000000000000000000000000000000000000000000600052601260045260246000fd5b6000612af182611c88565b9150612afc83611c88565b925082612b0c57612b0b612ab7565b5b828204905092915050565b6000612b2282611c88565b9150612b2d83611c88565b925082612b3d57612b3c612ab7565b5b828206905092915050565b7f4e487b7100000000000000000000000000000000000000000000000000000000600052603260045260246000fd5b7f4552433732313a206d696e7420746f20746865207a65726f2061646472657373600082015250565b6000612bad602083611bd8565b9150612bb882612b77565b602082019050919050565b60006020820190508181036000830152612bdc81612ba0565b9050919050565b7f4552433732313a20746f6b656e20616c7265616479206d696e74656400000000600082015250565b6000612c19601c83611bd8565b9150612c2482612be3565b602082019050919050565b60006020820190508181036000830152612c4881612c0c565b905091905056fea2646970667358221220ac55f4c6e88372cd71218159ab95ba1381243513202c3ab8ddc596230f3d6ffb64736f6c63430008090033",
  "linkReferences": {},
  "deployedLinkReferences": {}
}